:100000000C9418040C9449040C9449040C9449046D
:100010000C9449040C9449040C9449040C9449042C
:100020000C9449040C9449040C9449040C9449041C
:100030000C9449040C9449040C9449040C9449040C
:100040000C9449040C9449040C9449040C944904FC
:100050000C9449040C9449040C9449040C94480EE3
:100060000C9449040C9498140C9464150C94490451
:100070000C9449040C9449040C9449040C944904CC
:100080000C9449040C9449040C9449040C944904BC
:100090000C94CB140C94A3150C9449040C944904AF
:1000A0000C9449040C9449040C9449040C9449049C
:1000B0000C9449040C9449040C9449040C9449048C
:1000C0000C9449040C9449040C9449040C94FE14B7
:1000D0000C94E2150C9449040C9431150C942116DF
:1000E0000C944904870F8A0F7D0F810FC10F8E0F6B
:1000F000920F980F9C0FA00FA60FAA0FAE0FC10F63
:10010000B40FB80FBC0F0C94692A0C94DF2A0C941E
:10011000D1310C947D2A0C94A60F0C94A7190C9441
:10012000B80F0C940E220C94082C0C94712A0C9489
:100130009A2A0C9484110C947D0F0C94992A0C9497
:10014000B7300C94C2300C94AA0F0C94232B0C944F
:10015000A00F0C94892A0C94980F0C94810F0C9486
:10016000021A0C94BD190C94450C0C94C0290C94E3
:1001700011140C94D9190C94920F0C9490190C949E
:1001800095360C946A2A0C94A81A0C94870F0C9438
:10019000B40F0C9459310C941A360C94D6300C943C
:1001A000682C0C94E8160C9493310C94F5130C9471
:1001B0008A0F0C94672C0C9431140C943C140C94FE
:1001C000F8190C94E9300C94C10F0C94AE0F0C94F8
:1001D000ED340C941F310C94E5130C949C0F0C948B
:1001E0008E0F0C94E4130C94742B0C94BC0F0C9491
:1001F000922B0C94CF2F0C94A1340000090A020812
:100200000B0C0D07060304010000000000000000B5
:1002100000000000000000000000000000000000DE
:1002200000000000000011100F000000000000009E
:1002300000000000000000000000000000000000BE
:1002400001021020200808102040102040800201E8
:1002500002010804020101020408102040808040CD
:1002600020100804020180040201804020100804CC
:10027000020108040201010204081020408001026A
:100280000408102040800505050507050808080832
:10029000020202020A0A080804040404010101011E
:1002A0000101010103030303030303030407070719
:1002B0000C0C0C0C0C0C0C0C0202020206060606BE
:1002C000060606060B0B0B0B0B0B0B0B000020009E
:1002D0002300260029002C002F003200000100001E
:1002E00003010601090100002200250028002B005F
:1002F0002E003100340002010000050108010B014D
:1003000000002100240027002A002D0030003300C7
:1003100001010000040107010A017C3C3E5E2B3D07
:100320003F2F5B5D3B2C2A225C0000000000003E5A
:100330005B4F5B3E3E6B4F6B3E1C3E7C3E1C183C55
:100340007E3C181C577D571C1C5E7F5E1C00183CB1
:100350001800FFE7C3E7FF0018241800FFE7DBE7FA
:10036000FF30483A060E2629792926407F050507E1
:10037000407F05253F5A3CE73C5A7F3E1C1C08083D
:100380001C1C3E7F14227F22145F5F005F5F060902
:100390007F017F006689956A606060606094A2FF5B
:1003A000A29408047E040810207E201008082A1C4D
:1003B00008081C2A08081E101010100C1E0C1E0C19
:1003C00030383E3830060E3E0E06000000000000B9
:1003D000005F00000007000700147F147F14242A28
:1003E0007F2A1223130864623649562050000807FA
:1003F0000300001C2241000041221C002A1C7F1C1B
:100400002A08083E0808008070300008080808081C
:10041000000060600020100804023E5149453E0083
:10042000427F400072494949462141494D331814E1
:10043000127F1027454545393C4A49493141211130
:1004400009073649494936464949291E0000140022
:100450000000403400000008142241141414141445
:10046000004122140802015909063E415D594E7CA3
:100470001211127C7F494949363E414141227F4158
:1004800041413E7F494949417F090909013E4141B6
:1004900051737F0808087F00417F41002040413FA1
:1004A000017F081422417F404040407F021C027FB0
:1004B0007F0408107F3E4141413E7F090909063E05
:1004C0004151215E7F0919294626494949320301D4
:1004D0007F01033F4040403F1F2040201F3F4038E6
:1004E000403F631408146303047804036159494DC1
:1004F00043007F4141410204081020004141417FF7
:10050000040201020440404040400003070800206C
:10051000545478407F28444438384444442838446C
:1005200044287F385454541800087E090218A4A4A3
:100530009C787F0804047800447D40002040403DC2
:10054000007F1028440000417F40007C047804783C
:100550007C080404783844444438FC1824241818CF
:10056000242418FC7C08040408485454542404042B
:100570003F44243C4040207C1C2040201C3C403018
:10058000403C44281028444C9090907C4464544C47
:1005900044000836410000007700000041360800A2
:1005A00002010204023C2623263C1EA1A161123A4C
:1005B0004040207A38545455592155557941225498
:1005C000547842215554784020545579400C1E529D
:1005D0007212395555555939545454593955545442
:1005E000580000457C410002457D420001457C40A9
:1005F0007D1211127DF0282528F07C5455450020ED
:1006000054547C547C0A097F4932494949323A445E
:1006100044443A324A4848303A4141217A3A4240C9
:100620002078009DA0A07D3D4242423D3D4040409B
:100630003D3C24FF2424487E4943662B2FFC2F2B6E
:10064000FF0929F620C0887E09032054547941000F
:1006500000447D413048484A32384040227A007A8E
:100660000A0A727D0D19317D2629292F282629296C
:10067000292630484D40203808080808080808088E
:10068000382F10C8ACBA2F102834FA00007B0000B5
:1006900008142A142222142A14085500550055AAB9
:1006A00055AA55AAFF55FF55FF000000FF00101086
:1006B00010FF00141414FF001010FF00FF1010F0C2
:1006C00010F0141414FC001414F700FF0000FF00D5
:1006D000FF1414F404FC141417101F10101F101F23
:1006E0001414141F00101010F0000000001F101050
:1006F00010101F10101010F010000000FF1010104C
:10070000101010101010FF10000000FF140000FF68
:1007100000FF00001F10170000FC04F41414171051
:10072000171414F404F40000FF00F7141414141444
:100730001414F700F7141414171410101F101F14BA
:100740001414F4141010F010F000001F101F00001B
:10075000001F14000000FC140000F010F01010FF47
:1007600010FF141414FF141010101F00000000F0EC
:1007700010FFFFFFFFFFF0F0F0F0F0FFFFFF0000C1
:10078000000000FFFF0F0F0F0F0F3844443844FCE8
:100790004A4A4A347E02020606027E027E026355FF
:1007A0004941633844443C04407E201E2006027EBA
:1007B000020299A5E7A5991C2A492A1C4C720172CC
:1007C0004C304A4D4D303048784830BC625A463D36
:1007D0003E494949007E0101017E2A2A2A2A2A44EB
:1007E000445F444440514A444040444A5140000020
:1007F000FF0103E080FF000008086B6B083612362B
:100800002436060F090F060000181800000010100B
:10081000003040FF0101001F01011E00191D1712C9
:10082000003C3C3C3C0000000000450CE8169019E0
:1008300011241FBECFEFD1E2DEBFCDBF00E00CBF61
:1008400015E0A0E0B2E0E0E3F3E700E00BBF02C098
:1008500007900D92A631B107D9F72AE1A6E1B5E0DC
:1008600001C01D92AB31B207E1F714E0C8E1D4E05A
:1008700000E006C021970109802FFE010E94333954
:10088000C531D10780E00807A9F70E94FB0C0C9442
:1008900047380C9400002F923F924F925F926F92D4
:1008A0007F928F929F92AF92BF92CF92DF92EF9200
:1008B000FF920F931F93CF93DF93CDB7DEB7CA5448
:1008C000D1090FB6F894DEBF0FBECDBF1C014B019E
:1008D0002A0139011EAF0DAF2196FFAEEEAE219772
:1008E0002396BFAEAEAE23970DB71EB725961FAFAA
:1008F0000EAF25978E01045E1F4FC8010E94611A3A
:1009000021E0A10165EC77E1CE0101960E940E196C
:100910008B819C819F8F8E8F8D819E81AF81B885C9
:1009200088A399A3AAA3BBA389859A85AB85BC8517
:100930008CA39DA3AEA3BFA38DE0FE013D96DE0177
:10094000989601900D928A95E1F78A8D9B8D9EABCA
:100950008DABC8010E94E91AF82ECE0101960E94C3
:10096000741AFF20C1F05601AA0CBB1CC301A0E001
:10097000B0E08FAB98AFA9AFBAAFE12CF12CC201B8
:10098000A0E0B0E029968CAF9DAFAEAFBFAF299786
:10099000702E612E2DC06BE072E083E895E10E941D
:1009A000F611B10183E895E10E94F61167E283E850
:1009B00095E10E943712A9C0D401ED91FC91028803
:1009C000F389E02DC40119950FB6F8945EBE0FBEF1
:1009D0004DBEBFEFEB1AFB0A0FA918AD29AD3AAD1A
:1009E0000F5F1F4F2F4F3F4F0FAB18AF29AF3AAFDD
:1009F00023962EAD3FAD2397E216F30609F47EC091
:100A00004DB65EB6ADB7BEB7AA19BB090FB6F8941E
:100A1000BEBF0FBEADBFEDB7FEB73196FCAFEBAFBB
:100A2000F101A2A9B3A92FA938AD49AD5AAD0E94D1
:100A3000593929960CAD1DAD2EAD3FAD2997060F46
:100A4000171F281F391FB901A801440F551F661F22
:100A5000771F872D962D0E947F1AA5016BAD7CAD67
:100A6000872D962D0E94751A8A159B0581F06CE1E1
:100A700072E083E895E10E942512872D962D0E9451
:100A8000D71A0FB6F8945EBE0FBE4DBE3EC0D4015D
:100A9000ED91FC910680F781E02DC401199501E0EC
:100AA00010E0960121964EAD5FAD21974E0D5F1D72
:100AB0006DAD7EADC4010E9413350BAD1CAD20E0C1
:100AC00030E02C153D0509F477CFF8016191719163
:100AD0008F01762767277627C4012A962FAF2A979A
:100AE0002B963FAF2B970E94C4352A962FAD2A979D
:100AF0002B963FAD2B972F5F3F4FE3CFCE014C9608
:100B00000E94D71ACE014C9602C0CE014C960E948C
:100B1000741A25968EAD9FAD25970FB6F8949EBF9B
:100B20000FBE8DBFC65BDF4F0FB6F894DEBF0FBEA2
:100B3000CDBFDF91CF911F910F91FF90EF90DF908C
:100B4000CF90BF90AF909F908F907F906F905F906D
:100B50004F903F902F900895AF92BF92CF92DF9227
:100B6000EF92FF920F931F93282FCB01BA01022E11
:100B7000000C330BD90144E0AA0FBB1F4A95E1F7E3
:100B8000A05DBD4F1496AD90BD90CD90DC901797B1
:100B9000220F331FF901E052FC4FE080F1800F2C4F
:100BA000000C000B110BFD013C9623812F93228139
:100BB0002F9321812F931C962C912F9320E030E0CE
:100BC000A9010E94BA170F900F900F900F901F91DC
:100BD0000F91FF90EF90DF90CF90BF90AF9008956E
:100BE000AF92BF92CF92DF92EF92FF920F931F933B
:100BF000282FCB01BA01022E000C330BD90144E09F
:100C0000AA0FBB1F4A95E1F7A05DBD4FAD90BD9007
:100C1000CD90DC901397220F331FF901EC52FC4F5B
:100C2000E080F1800F2C000C000B110BFD013896B9
:100C300023812F9322812F9321812F9318962C911A
:100C40002F9320E030E0A9010E94BA170F900F9077
:100C50000F900F901F910F91FF90EF90DF90CF902A
:100C6000BF90AF9008954F925F926F927F92AF9234
:100C7000BF92CF92DF92EF92FF920F931F93282F94
:100C8000CB01BA01A22F220FBB0BFD0124E0EE0F16
:100C9000FF1F2A95E1F7E05DFD4FE484F5840685AA
:100CA00017852481358146815781FD01EE0FFF1F95
:100CB000E052FC4F0190F081E02D2F01FF0F6608FC
:100CC00077087F926F925F924F92A12CB12C6501B1
:100CD0000E94BA170F900F900F900F901F910F91D5
:100CE000FF90EF90DF90CF90BF90AF907F906F908C
:100CF0005F904F9008954F925F926F927F92AF9264
:100D0000BF92CF92DF92EF92FF920F931F93282F03
:100D1000CB01BA01A22F220FBB0BFD0124E0EE0F85
:100D2000FF1F2A95E1F7E05DFD4FE084F184028525
:100D300013852081318142815381FD01EE0FFF1F18
:100D4000EC52FC4F0190F081E02D2F01FF0F66085F
:100D500077087F926F925F924F92A12CB12C650120
:100D60000E94BA170F900F900F900F901F910F9144
:100D7000FF90EF90DF90CF90BF90AF907F906F90FB
:100D80005F904F900895EFE5F5E08281938184595B
:100D90009F4F2081318120563F4F36832583908796
:100DA00087830895EFE5F5E082E084838FE593E0A3
:100DB0009183808383E993E0938382830C94C306B9
:100DC00020915F053091600537FD12C0E091630509
:100DD000EE0FFF0BE052FC4F80819181AC014F532D
:100DE00051402417350734F09C012054314002C093
:100DF00020E030E0809161059091620597FD12C07E
:100E0000E0916305EE0FFF0BEC52FC4F40815181E6
:100E1000BA01675D71098617970734F0CA01885DCA
:100E2000910902C080E090E03093600520935F0557
:100E300090936205809361050895EFE5F5E0858163
:100E40009681805A910991838083878190858C5601
:100E50009109938382830C94E006EFE5F5E04781E6
:100E6000508522813381A581B6810190F081E02DEA
:100E7000BD016E1B7F0BCA01821B930B0895AF92BD
:100E8000BF92CF92DF92EF92FF920F931F93EFE505
:100E9000F5E02281338140815181618572858481B1
:100EA000E6E38E02C0011124E8EDAE2EB12CF0E491
:100EB000CF2EDD24D394E12CF12C00E010E08057FC
:100EC0009D4F0E944B041F910F91FF90EF90DF9078
:100ED000CF90BF90AF900895AF92BF92CF92DF9224
:100EE000EF92FF920F931F930E942D077C0123E046
:100EF000E21AF1088B0103501109EFE5F5E02781B3
:100F00003085235031094581568143505109A185CF
:100F1000B285848166E38602C001112467E0A62EB3
:100F2000B12C77E0C72ED12CBD0180579D4F0E9478
:100F30004B041F910F91FF90EF90DF90CF90BF90E7
:100F4000AF9008950F931F930E942D0700E018EFB4
:100F500023E030E0AC0180916805909169050E9422
:100F6000722D1F910F910895EFE5F5E0DC014D9191
:100F70005C91119760EA649F9001659F300D112488
:100F800040815181240F351F3183208312962D918A
:100F90003C9113974CE6429FC001439F900D112452
:100FA00022813381820F931F938382830C94E00606
:100FB000CF92DF92EF92FF920F931F93CF93DF9325
:100FC0006C01CFE5D5E089859A85DC01ED91FC9136
:100FD000048CF58DE02D20EEE22E27E0F22E08E1C4
:100FE00010E020E431E048ED50E060E070E0199559
:100FF0006FE178EF89859A850E94B1304CED50E021
:1010000065E070E089859A850E94A53062E0898557
:101010009A850E94AB30B60189859A85DF91CF9180
:101020001F910F91FF90EF90DF90CF900C942512BD
:10103000CF92DF92EF92FF920F931F93CF93DF93A4
:10104000CDB7DEB728970FB6F894DEBF0FBECDBF81
:101050008FE5E82E85E0F82EF70145815681052EB3
:10106000000C660B770B84810E94AC05162FC72EEF
:10107000D82E092FF70147815085052E000C660BED
:10108000770B84810E94F005212F3C2D4D2D502F90
:1010900028960FB6F894DEBF0FBECDBFDF91CF917B
:1010A0001F910F91FF90EF90DF90CF900895809166
:1010B000640590916505863091058CF0E09163059B
:1010C000EE0FFF0BE052FC4F20813181A90145500A
:1010D0005109841795072CF0C901069702C086E0D4
:1010E00090E09093650580936405809166059091EA
:1010F0006705863091058CF0E0916305EE0FFF0BDC
:10110000EC52FC4F20813181A901455051098417CF
:1011100095072CF0C901069702C086E090E09093F5
:1011200067058093660508958F929F92AF92BF9254
:10113000CF92DF92EF92FF92CF93DF9320916305DE
:10114000422F022E000C550B840F951F86309105FF
:1011500014F085E090E0EC0197FF02C0C0E0D0E021
:10116000C417D50709F43FC0409166055091670543
:10117000052E000C660B770B822F0E94F0056B0189
:101180007C018091640590916505AC01990F660B17
:10119000770B809163050E94AC054B015C01B701A0
:1011A000A6018C2F0E947B066B017C01B501A40176
:1011B0008C2F0E9433067093650560936405D0926E
:1011C0006705C0926605C09363050E945708DF91CA
:1011D000CF91FF90EF90DF90CF90BF90AF909F9016
:1011E0008F900C941D07DF91CF91FF90EF90DF90CF
:1011F000CF90BF90AF909F908F900895CF93DF9343
:1012000000D01F92CDB7DEB7FC01809164059091AC
:10121000650520813181280F391F309365052093A2
:101220006405209166053091670582819381820F64
:10123000931F90936705809366050E9457080E944C
:101240002D071A8219821C821B82653071051CF4DD
:101250002FEF3FEF05C06C33714024F021E030E008
:101260003A832983853091051CF48FEF9FEF05C0E9
:10127000843D910524F081E090E09C838B838981FB
:101280009A81892B21F48B819C81892B39F081E013
:1012900080937105CE0101960E94B4070F900F90C4
:1012A0000F900F90DF91CF9108950F931F93CF93DD
:1012B000DF9300D01F92CDB7DEB782E00E942E10E0
:1012C00021E0892B09F020E020936E0583E00E9445
:1012D0002E1021E0892B09F020E020936F0588E093
:1012E0000E942E1021E0892B09F020E02093700548
:1012F00087E30E944B0F20916C0530916D05821B96
:10130000930B97FDCF968C0136E0159507953A958E
:10131000E1F786E30E944B0F20916A0530916B053F
:10132000821B930B97FDCF9626E0959587952A957E
:10133000E1F71C830B8322273327281B390B3A83C1
:101340002983232B11F4012B61F00E946C07CE013D
:1013500001960E94FE0880917105811102C00E94D1
:10136000A2070F900F900F900F90DF91CF911F91D8
:101370000F9108952F923F924F925F926F927F92BA
:101380008F929F92AF92BF92CF92DF92EF92FF9295
:101390000F931F93CF93DF9300D000D0CDB7DEB76C
:1013A0004C011E821D82712C20E030E040E050E0B4
:1013B000E12CF12C00E010E0F401848195816D8135
:1013C0007E8168177907A0F46D817E81C40129832D
:1013D0003A834B835C830E949113E82F29813A81E1
:1013E0004B815C818D32C9F180ED8E0F8A3048F0DF
:1013F0007720E1F1B701C8010E9464397B018C01BB
:1014000035C0B701C80101E00E94743919012A01F1
:10141000662EB72FA82FF92F02E00E9474395901C8
:101420006A017B018C019101A201662D7B2F8A2F1D
:101430009F2F0E948D390E2E000CFF0BF0971F2F4F
:10144000110F110B5F01C12ED12EE12EF12E012FB4
:101450000E948D397B018C0102C0772473946D81C9
:101460007E816F5F7F4F7E836D83A6CFB701C801FA
:1014700026960FB6F894DEBF0FBECDBFDF91CF9199
:101480001F910F91FF90EF90DF90CF90BF90AF90A2
:101490009F908F907F906F905F904F903F902F9094
:1014A0000895BF92CF92DF92EF92FF920F931F9316
:1014B000CF93DF93CDB7DEB72E970FB6F894DEBF8C
:1014C0000FBECDBF6C016AE974E0CE0101960E94A7
:1014D000B7126AE974E0CE0108960E94B71200E0E4
:1014E00010E0E12CF12C87E0B82EF6018481958183
:1014F00008171907E0F4B801C6010E949113803261
:1015000021F42FEFE21AF20A0FC0BE9C9001BF9C9B
:10151000300D1124682FC901E1E0F0E0EC0FFD1F50
:101520008E0F9F1F0E9440130F5F1F4FDECFCE0113
:1015300001960E94BA09209316053093170540932F
:1015400018055093190560931A0570931B05809335
:101550001C0590931D05CE0108960E94BA092093A0
:101560001E0530931F05409320055093210560937D
:101570002205709323058093240590932505CE01C1
:1015800008960E944912CE0101960E94491286E1F6
:1015900095E02E960FB6F894DEBF0FBECDBFDF915B
:1015A000CF911F910F91FF90EF90DF90CF90BF9060
:1015B00008952F923F924F925F926F927F928F92F7
:1015C0009F92AF92BF92CF92DF92EF92FF920F93D2
:1015D0001F93CF93DF93CDB7DEB728970FB6F8945C
:1015E000DEBF0FBECDBF8FE595E098878F83C12CFE
:1015F000D12C8F819885089698878F83809172056A
:10160000909173050197C816D9060CF070C0AF8190
:10161000B8851D968D909D90AD90BC905097519639
:101620004D905D906D907C905497BFEFCB1ADB0A84
:10163000AF81B88555968D919D910D90BC91A02D4F
:101640008B839C83AD83BE83E0916805F09169052F
:101650000190F081E02D80A191A19A838983AF81CF
:10166000B88559964D915D916D917C915C97809173
:1016700063050E947B0620916105309162058B0114
:10168000021B130B4B815C816D817E818091630510
:101690000E94330620915F05309160051B01221ADC
:1016A000330AB301A201809163050E947B06209159
:1016B0006105309162053B01621A730AB501A4010C
:1016C000809163050E94330620915F05309160058B
:1016D000621B730B8FE1E82EF12C9101A301809125
:1016E000680590916905E981FA81199582CF28965C
:1016F0000FB6F894DEBF0FBECDBFDF91CF911F9123
:101700000F91FF90EF90DF90CF90BF90AF909F90A0
:101710008F907F906F905F904F903F902F900895A3
:10172000CF92DF92EF92FF920F931F93CF93DF93AD
:10173000CDB7DEB72E970FB6F894DEBF0FBECDBF84
:1017400060912A0570912B05DB018C918E3461F537
:101750000091280510912905CE0101960E94B7122B
:10176000980142E050E0BE016F5F7F4FCE010896C6
:101770000E949313CE0101960E944912CE01089651
:101780000E94D9137093730560937205653F714091
:1017900034F46CEE73E083E895E10E942512CE01EB
:1017A00008960E94491256C0873509F041C0009141
:1017B000280510912905CE0101960E94B7129801C3
:1017C00042E050E0BE016F5F7F4FCE0108960E945D
:1017D0009313CE0101960E944912CE0108960E94F1
:1017E000510A2091260530912705FC014081518145
:1017F00062817381F901A3E0EE0FFF1FAA95E1F763
:10180000EC58FA4FDC011896CD90DD90ED90FC90ED
:101810001B97C082D182E282F38244835583668320
:1018200077832F5F3F4F3093270520932605B1CF55
:10183000853491F46CEE73E083E895E10E94251203
:1018400010922705109226050E94D90A8EEE93E089
:101850000E94D80781E001C080E010922905109213
:101860002805E0912A05F0912B0510822E960FB6DF
:10187000F894DEBF0FBECDBFDF91CF911F910F91C6
:10188000FF90EF90DF90CF90089510926005109236
:101890005F05109262051092610510926505109225
:1018A0006405109267051092660510926B05109200
:1018B0006A0510926D0510926C05EFE5F5E0158A4A
:1018C000168A178A108E118E128E138E148E3896E9
:1018D00084E1EF3FF80799F72FEF49E06AE08CE2E7
:1018E00095E00E94EA3180E091E00E9457109093C9
:1018F0002B0580932A050895CF93DF930E94E90E6C
:1019000062E082E00E94C20F62E083E00E94C20FA8
:1019100062E088E00E94C20F87E30E944B0FEC0157
:1019200086E30E944B0F90936B0580936A05D093DA
:101930006D05C0936C0540E855E260E070E083E817
:1019400095E10E94601683E895E10E94311410929F
:101950007305109272058CE295E09093690580936F
:10196000680540E050E0BA010E94AB328091680502
:1019700090916905DC01ED91FC910488F589E02DD9
:1019800063E019958091680590916905DC01ED91FE
:10199000FC91068CF78DE02D6FE170E0199566E003
:1019A00085EC97E10E94FB17811119C064EF73E089
:1019B00083E895E10E94251260E274E083E895E1F6
:1019C0000E9425126FE374E083E895E10E942512DE
:1019D00069E574E083E895E10E942512FFCF0E943B
:1019E000D2060E943F070E94A2078EEE93E0DF918D
:1019F000CF910C94D807CF93DF93CDB7DEB7E7979D
:101A00000FB6F894DEBF0FBECDBF0E947C0CC12C78
:101A1000D12C7601812C912C540100E010E033246C
:101A2000339410926E0510926F051092700510920B
:101A300071050E94550980916E05882319F081E097
:101A400090E006C080916F05882331F08FEF9FEF03
:101A50000E9494083092710580917005882309F4E2
:101A600001C1012B21F50E94180829873A874B876D
:101A70005C876D877E878F87988B89849A84AB84F7
:101A8000BC84CD84DE84EF84F88884E994E00E94ED
:101A9000D80788E00E942E10892BD9F364E670E005
:101AA00080E090E00E94C30E01E010E0DBC00E94E5
:101AB000180829833A834B835C836D837E838F83ED
:101AC00098874D805E806F80788449815A816B81D0
:101AD0007C812AE0CE0141960E94E4122AE0B30103
:101AE000A201CE0148960E94E4122AE0B501A401A9
:101AF000CE014F960E94E4122AE0B701A601CE0162
:101B00008D960E94E41268E974E0CE0186960E94E8
:101B1000B712BE01635D7F4FCE0186960E945413BB
:101B200069E974E00E946713BE01615E7F4F0E9405
:101B3000541369E974E00E946713BE01685E7F4F29
:101B40000E94541369E974E00E946713BE016F5E3E
:101B50007F4F0E945413BC0183E895E10E94131249
:101B6000CE0186960E944912CE018D960E9449129E
:101B7000CE014F960E944912CE0148960E9449120A
:101B8000CE0141960E9449120E94920E2B013C0107
:101B900080E197E2A0E0B0E08CAB9DABAEABBFAB19
:101BA00020E0211154C083E895E10E94E5138C01E7
:101BB0000E94920EAB01BC014419550966097709D0
:101BC00021E08CA99DA9AEA9BFA984179507A607F6
:101BD000B70708F020E0012B21F383E895E10E948C
:101BE00011148A3011F08D3089F40E94900B8823F3
:101BF000D1F20E94920E2B013C0188EE93E0A0E00E
:101C0000B0E08CAB9DABAEABBFABCDCF2091280588
:101C1000309129052F3F310530F640912A0550912A
:101C20002B05FA01E20FF31F808380912805909124
:101C300029050196909329058093280520912A056E
:101C400030912B05F901E80FF91F1082ACCF8EEE11
:101C500093E00E94D80788E00E942E10892BD9F3C8
:101C600000E010E080917105882309F4DACE0E942B
:101C70003F070E94A2070E94D90A0115110519F415
:101C80008EEE93E002C084E994E00E94D807C9CEAA
:101C90001F920F920FB60F9211242F933F938F93A1
:101CA0009F93AF93BF938091151590911615A091B6
:101CB0001715B09118153091141523E0230F2D3707
:101CC00020F40196A11DB11D05C026E8230F029640
:101CD000A11DB11D20931415809315159093161511
:101CE000A0931715B09318158091191590911A1596
:101CF000A0911B15B0911C150196A11DB11D8093DB
:101D0000191590931A15A0931B15B0931C15BF912C
:101D1000AF919F918F913F912F910F900FBE0F9098
:101D20001F9018952FB7F89460911515709116159E
:101D300080911715909118152FBF08953FB7F8940B
:101D40008091191590911A15A0911B15B0911C1531
:101D500026B5A89B05C02F3F19F00196A11DB11D06
:101D60003FBFBA2FA92F982F8827820F911DA11D41
:101D7000B11DBC01CD0142E0660F771F881F991F7E
:101D80004A95D1F70895CF92DF92EF92FF92CF93C9
:101D9000DF936B017C010E949E0EEB01C114D10404
:101DA000E104F10479F00E949E0E6C1B7D0B683EED
:101DB0007340A0F381E0C81AD108E108F108C851C6
:101DC000DC4FECCFDF91CF91FF90EF90DF90CF9081
:101DD0000895789484B5826084BD84B5816084BDA3
:101DE00085B5826085BD85B5816085BDEEE6F0E094
:101DF000808181608083E1E8F0E0108280818260F0
:101E00008083808181608083E0E8F0E08081816070
:101E10008083E1EBF0E0808184608083E0EBF0E0A0
:101E2000808181608083E1E9F0E08081826080834D
:101E3000808181608083E0E9F0E08081816080833F
:101E4000E1EAF0E08081826080838081816080832C
:101E5000E0EAF0E0808181608083E1E2F1E080816E
:101E600082608083808181608083E0E2F1E0808114
:101E700081608083EAE7F0E08081846080838081F4
:101E8000826080838081816080838081806880839C
:101E90001092C1000895863308F0865390917B001C
:101EA000282F2870977F922B90937B00877020912A
:101EB000000290E4299F90011124822B80937C00E2
:101EC00080917A00806480937A0080917A0086FD08
:101ED000FCCF809178002091790090E0922B0895BA
:101EE00090E0FC013197E131F10508F04AC0882704
:101EF000EE58FF4F8F4F0C943339809180008F77CD
:101F000003C0809180008F7D80938000089584B508
:101F10008F7702C084B58F7D84BD08958091B00015
:101F20008F7703C08091B0008F7D8093B0000895BB
:101F3000809190008F7707C0809190008F7D03C0C3
:101F400080919000877F8093900008958091A000F9
:101F50008F7707C08091A0008F7D03C08091A00083
:101F6000877F8093A0000895809120018F7707C01C
:101F7000809120018F7D03C080912001877F809315
:101F800020010895CF93DF9390E0FC01E05CFD4FCA
:101F90002491FC01EA57FD4F8491882361F190E080
:101FA000880F991FFC01E050FD4FC591D491FC01B1
:101FB000EA51FD4FA591B491611109C09FB7F89402
:101FC0008881209582238883EC912E230BC0623078
:101FD00061F49FB7F8943881822F8095832388839A
:101FE000EC912E2B2C939FBF06C08FB7F894E881FD
:101FF0002E2B28838FBFDF91CF9108951F93CF930E
:10200000DF93282F30E0F901E650FE4F8491F9016B
:10201000E05CFD4FD491F901EA57FD4FC491CC2308
:10202000C9F0162F81110E94700FEC2FF0E0EE0F17
:10203000FF1FEA51FD4FA591B4918FB7F89411118C
:1020400005C09C91ED2FE095E92302C0EC91ED2BAA
:10205000EC938FBFDF91CF911F910895CF93DF93C2
:10206000282F30E0F901E650FE4F8491F901E05C41
:10207000FD4FD491F901EA57FD4FC491CC2391F063
:1020800081110E94700FEC2FF0E0EE0FFF1FE45360
:10209000FD4FA591B491EC91ED2381E090E021F406
:1020A00080E002C080E090E0DF91CF910895CF936F
:1020B000DF938230910510F482E090E0E091191AEC
:1020C000F0911A1A20E030E0C0E0D0E0309711F132
:1020D0004081518148175907C0F04817590761F4EA
:1020E00082819381209719F09B838A832BC09093E0
:1020F0001A1A8093191A26C02115310519F04217B2
:10210000530718F49A01BE01DF01EF010280F38149
:10211000E02DDCCF2115310509F1281B390B2430C6
:10212000310590F412968D919C911397611571056C
:1021300021F0FB019383828304C090931A1A809349
:10214000191AFD01329644C0FD01E20FF31F81937D
:102150009193225031092D933C933AC02091171A44
:102160003091181A232B41F420910302309104027C
:102170003093181A2093171A20910102309102020D
:102180002115310541F42DB73EB74091050250911C
:102190000602241B350BE091171AF091181AE2176A
:1021A000F307A0F42E1B3F0B2817390778F0AC017A
:1021B0004E5F5F4F2417350748F04E0F5F1F509357
:1021C000181A4093171A8193919302C0E0E0F0E04F
:1021D000CF01DF91CF9108950F931F93CF93DF939A
:1021E000009709F48CC0FC0132971382128200918F
:1021F000191A10911A1A0115110581F420813181E3
:10220000820F931F2091171A3091181A2817390737
:1022100079F5F093181AE093171A71C0D80140E0CD
:1022200050E0AE17BF0750F412962D913C911397D2
:10223000AD012115310509F1D901F3CF9D01DA0175
:102240003383228360817181860F971F82179307E2
:1022500069F4EC0128813981260F371F2E5F3F4F2B
:10226000318320838A819B8193838283452B29F448
:10227000F0931A1AE093191A42C01396FC93EE9346
:102280001297ED01499159919E01240F351FE217D4
:10229000F30771F480819181840F951F0296119646
:1022A0009C938E938281938113969C938E93129725
:1022B000E0E0F0E0D80112968D919C911397009781
:1022C00019F0F8018C01F6CF8D919C9198012E5F49
:1022D0003F4F820F931F2091171A3091181A281719
:1022E000390769F4309729F410921A1A1092191AC2
:1022F00002C0138212821093181A0093171ADF91EA
:10230000CF911F910F910895CF92DF92EF92FF929C
:102310000F931F93CF93DF936C01EB017B01E40ECE
:10232000F51E00E010E0CE15DF0561F06991D601E1
:10233000ED91FC910190F081E02DC6011995080FF7
:10234000191FF1CFC801DF91CF911F910F91FF901D
:10235000EF90DF90CF9008956115710579F0FB0142
:1023600001900020E9F73197AF01461B570BDC01C4
:10237000ED91FC910280F381E02D199480E090E0D2
:102380000895AF92BF92CF92DF92EF92FF920F9398
:102390001F93CF93DF936C017B01C0E0D0E000E09E
:1023A00010E0D70114968D919C911597C817D90705
:1023B00088F4D601ED91FC91A080B180BE01C701E7
:1023C0000E948013682FC601F5011995080F191F87
:1023D0002196E7CFC801DF91CF911F910F91FF9018
:1023E000EF90DF90CF90BF90AF9008950C94AC1118
:1023F000DC01ED91FC910190F081E02D19940F9397
:102400001F93CF93DF93EC016DE00E94F8118C01D4
:102410006AE0CE010E94F811800F911FDF91CF91E9
:102420001F910F9108950F931F93CF93DF93EC01AA
:102430000E94C1118C01CE010E94FF11800F911FDB
:10244000DF91CF911F910F9108950F931F93CF9319
:10245000DF93EC010E94AC118C01CE010E94FF11B0
:10246000800F911FDF91CF911F910F9108950F93CE
:102470001F93CF93DF93EC010E94F8118C01CE01E2
:102480000E94FF11800F911FDF91CF911F910F913B
:102490000895FC01808191810C94EC10CF93DF931F
:1024A000EC0188819981009711F00E94EC1019824B
:1024B00018821D821C821B821A82DF91CF9108959F
:1024C0000F931F93CF93DF93EC018B016F5F7F4FCF
:1024D000888199810E940437009731F0998388831D
:1024E0001B830A8381E001C080E0DF91CF911F91BF
:1024F0000F910895CF93DF93EC0188819981892B07
:1025000029F08A819B818617970760F4CE010E948B
:102510006012882341F08C819D81892B19F4E88118
:10252000F981108281E0DF91CF910895EF92FF92BF
:102530000F931F93CF93DF93EC017B018A01BA01C4
:102540000E947A12811104C0CE010E944E1207C06F
:102550001D830C83B701888199810E946B38CE015D
:10256000DF91CF911F910F91FF90EF900895FC01A3
:1025700011821082138212821582148216826115D2
:10258000710551F0FB0101900020E9F73197AF018F
:10259000461B570B0C9496120895CF93DF93EC01D2
:1025A0006115710559F0FB0101900020E9F73197A1
:1025B000AF01461B570B0E94961202C00E944E129A
:1025C000CE01DF91CF9108950F931F93CF93DF93A7
:1025D000CDB7DEB7A2970FB6F894DEBF0FBECDBF62
:1025E0008C01CB01BA01F801118210821382128290
:1025F00015821482168230E0AE014F5F5F4F0E9459
:102600008138BE016F5F7F4FC8010E94CD12A29634
:102610000FB6F894DEBF0FBECDBFDF91CF911F91F3
:102620000F910895EF92FF920F931F93CF93DF9333
:10263000FC01248135816115710511F480E019C018
:1026400041155105A9F07B01EC018A01020F131F0E
:10265000B8010E947A12882389F3288139818C81FC
:102660009D81B701820F931F0E946B381D830C83DD
:1026700081E0DF91CF911F910F91FF90EF9008952E
:10268000CF93DF931F921F92CDB7DEB769831A8273
:1026900041E050E0BE016F5F7F4F0E9412130F9028
:1026A0000F90DF91CF910895CF93DF93EC01FB0161
:1026B00044815581608171810E941213811103C090
:1026C000CE010E944E12CE01DF91CF910895CF939B
:1026D000DF93EC016115710561F0FB0101900020B1
:1026E000E9F73197AF01461B570B0E941213811176
:1026F00003C0CE010E944E12CE01DF91CF9108950A
:10270000FC01248135816217730748F4808191812F
:10271000009729F0FC01E60FF71F8081089580E003
:1027200008950C948013BF92CF92DF92EF92FF92A4
:102730000F931F93CF93DF937C016B018A01E90113
:102740002417350720F4812F8901C42FD82F6AE977
:1027500074E0C7010E94B712D60114968D919C9126
:10276000159780179107D0F08C179D0708F4EC019E
:10277000D601ED91FC911197EC0FFD1FB0801082F6
:102780004D915C91BA01600F711FC7010E94CD127B
:10279000D601ED91FC91EC0FFD1FB082C701DF91D6
:1027A000CF911F910F91FF90EF90DF90CF90BF904E
:1027B0000895FC0180819181009711F00C942038DC
:1027C00060E070E0CB0108950895FC012485358513
:1027D000F901E05CFF4F8081918132962081318147
:1027E000821B930B8F7399270895DC011C96ED9142
:1027F000FC911D97DF01A05CBF4F2D913C9111977B
:1028000012968D919C9111972817390739F08D9167
:102810009C91E80FF91F808190E008958FEF9FEF62
:102820000895FC01A485B585FD01E05CFF4F208182
:1028300031813296808191812817390779F0808122
:102840009181A80FB91F8C91208131812F5F3F4F5B
:102850002F7333273183208390E008958FEF9FEF0C
:102860000895FC0181A1882329F0A489B5898C9160
:1028700086FFFBCF11A208950F931F93CF93DF9391
:10288000FC01A685B7858D01005C1F4FE80188819A
:10289000998101968F739927AD014E5B5F4FEA01D5
:1028A0002881398182179307D1F3E8012881398182
:1028B000A20FB31F6C93A685B785A05CBF4F11967E
:1028C0009C938E93A689B7892C9181E090E0078C28
:1028D00002C0880F991F0A94E2F7822B8C9381E043
:1028E00081A30488F589E02D80818064808381E064
:1028F00090E0DF91CF911F910F910895FB01E05C73
:10290000FF4F208131812F5F3F4F2F733327DB0132
:10291000AE5BBF4F4D915C912417350741F040816C
:102920005181DB01A40FB51F8C933183208308955F
:102930001F920F920FB60F9211240BB60F922F9386
:102940003F934F935F936F937F938F939F93AF9337
:10295000BF93EF93FF938091C00082FD07C08091E9
:10296000C60061E877E10E947E1402C08091C60033
:10297000FF91EF91BF91AF919F918F917F916F9157
:102980005F914F913F912F910F900BBE0F900FBE13
:102990000F901F9018951F920F920FB60F9211244F
:1029A0000BB60F922F933F934F935F936F937F9349
:1029B0008F939F93AF93BF93EF93FF938091C80042
:1029C00082FD07C08091CE0069EF76E10E947E14FF
:1029D00002C08091CE00FF91EF91BF91AF919F9186
:1029E0008F917F916F915F914F913F912F910F90B8
:1029F0000BBE0F900FBE0F901F9018951F920F9255
:102A00000FB60F9211240BB60F922F933F934F9353
:102A10005F936F937F938F939F93AF93BF93EF9346
:102A2000FF938091D00082FD07C08091D60061E7BE
:102A300076E10E947E1402C08091D600FF91EF9152
:102A4000BF91AF919F918F917F916F915F914F91C6
:102A50003F912F910F900BBE0F900FBE0F901F90C4
:102A600018951F920F920FB60F9211240BB60F926A
:102A70002F933F934F935F936F937F938F939F9386
:102A8000AF93BF93EF93FF938091300182FD07C016
:102A90008091360169EE75E10E947E1402C080913A
:102AA0003601FF91EF91BF91AF919F918F917F91EF
:102AB0006F915F914F913F912F910F900BBE0F90AF
:102AC0000FBE0F901F9018951F920F920FB60F9286
:102AD00011240BB60F922F933F938F939F93EF93F5
:102AE000FF9320917D1730917E1780917F179091F1
:102AF00080172817390731F48091C1008F7D8093AA
:102B0000C10014C0E0917F17F0918017E35CF84E8C
:102B1000208180917F179091801701968F7399275C
:102B20009093801780937F172093C600FF91EF91B9
:102B30009F918F913F912F910F900BBE0F900FBEE1
:102B40000F901F9018951F920F920FB60F9211249D
:102B50000BB60F922F933F938F939F93EF93FF9317
:102B60002091F5163091F6168091F7169091F8168F
:102B70002817390731F48091C9008F7D8093C900EF
:102B800014C0E091F716F091F816EB54F94E20813D
:102B90008091F7169091F81601968F73992790936C
:102BA000F8168093F7162093CE00FF91EF919F9136
:102BB0008F913F912F910F900BBE0F900FBE0F90F2
:102BC0001F9018951F920F920FB60F9211240BB6FB
:102BD0000F922F933F938F939F93EF93FF932091A7
:102BE0006D1630916E1680916F16909170162817A1
:102BF000390731F48091D1008F7D8093D10014C0CA
:102C0000E0916F16F0917016E35DF94E208180918E
:102C10006F169091701601968F7399279093701686
:102C200080936F162093D600FF91EF919F918F9123
:102C30003F912F910F900BBE0F900FBE0F901F90E2
:102C400018951F920F920FB60F9211240BB60F9288
:102C50002F933F938F939F93EF93FF932091E515CD
:102C60003091E6158091E7159091E81528173907FE
:102C700031F4809131018F7D8093310114C0E09156
:102C8000E715F091E815EB55FA4E20818091E71594
:102C90009091E81501968F7399279093E81580938A
:102CA000E71520933601FF91EF919F918F913F910E
:102CB0002F910F900BBE0F900FBE0F901F90189585
:102CC000CF92DF92EF92FF920F931F93CF93DF93F8
:102CD000EC016A017B014115514E6105710509F155
:102CE000EC89FD8981E090E008A002C0880F991F5F
:102CF0000A94E2F7808360E079E08DE390E0A70139
:102D000096010E94F23889019A01015011092109A6
:102D100031093695279517950795980101151041AA
:102D2000A8F0EC89FD89108260E874E88EE190E0FB
:102D3000A70196010E94F238DA01C9010197A109A1
:102D4000B109B695A795979587959C01E889F9896A
:102D50003083EA89FB89208319A2EE89FF894081AB
:102D600081E090E09C010C8C02C0220F331F0A947A
:102D7000E2F7242B2083EE89FF8940819C010D8C92
:102D800002C0220F331F0A94E2F7242B2083EE891E
:102D9000FF8940819C010E8C02C0220F331F0A94D0
:102DA000E2F7242B2083EE89FF8920810F8C02C05B
:102DB000880F991F0A94E2F7809582238083DF9120
:102DC000CF911F910F91FF90EF90DF90CF900895DA
:102DD000CF92DF92EF92FF92E3E8F5E11382128245
:102DE00088EEC82E83E0D82EE12CF12CC482D58247
:102DF000E682F7826FE974E07183608381E897E18E
:102E0000958784878DE397E19787868785EC90E0A7
:102E1000918B808B84EC90E0938B828B80EC90E0A4
:102E2000958B848B81EC90E0978B868B82EC90E085
:102E3000918F808F86EC90E0938F828F44E0448F57
:102E400033E0358F27E0268F95E0978F81E080A3D0
:102E5000E1E6F5E113821282C482D582E682F7822E
:102E600071836083A9EFB6E1B587A487A5EBB6E1CE
:102E7000B787A687ADECB0E0B18BA08BACECB0E02F
:102E8000B38BA28BA8ECB0E0B58BA48BA9ECB0E01F
:102E9000B78BA68BAAECB0E0B18FA08FAEECB0E000
:102EA000B38FA28F448F358F268F978F80A3EFE348
:102EB000F5E113821282C482D582E682F7827183A1
:102EC0006083A1E7B6E1B587A487ADE2B6E1B78735
:102ED000A687A5EDB0E0B18BA08BA4EDB0E0B38BDD
:102EE000A28BA0EDB0E0B58BA48BA1EDB0E0B78BC9
:102EF000A68BA2EDB0E0B18FA08FA6EDB0E0B38FAE
:102F0000A28F448F358F268F978F80A3EDE1F5E157
:102F100013821282C482D582E682F7827183608333
:102F200069EE75E17587648765EA75E1778766877D
:102F300065E371E0718B608B64E371E0738B628B8E
:102F400060E371E0758B648B61E371E0778B668B76
:102F500062E371E0718F608F66E371E0738F628F5F
:102F6000448F358F268F978F80A3FF90EF90DF904F
:102F7000CF9008954F925F926F927F92AF92BF92DF
:102F8000CF92DF92EF92FF920F931F93CF93DF9335
:102F9000CDB7DEB729013A019B01AC0124193509EF
:102FA000460957098A899B89AC89BD89BC01CD0135
:102FB0006A197B098C099D090E94E238A8019701D2
:102FC00024193509460957090E941439CA01B90163
:102FD0006A0D7B1D8C1D9D1DDF91CF911F910F915F
:102FE000FF90EF90DF90CF90BF90AF907F906F9069
:102FF0005F904F9008950F931F93CF93DF93EC0151
:10300000462F61E00E94F322882391F08E01045F35
:103010001F4F41E0BE01C8010E94A928882351F03A
:10302000B801CE018A960E94CF1B91E081110AC09F
:1030300090E008C040E0BE01C8010E94A928882392
:10304000B9F3EECF892FDF91CF911F910F910895A2
:10305000FC01DB0112968D919C91139793838283DF
:1030600081EC94E09183808314968C9114978483EF
:1030700015968C911597858316964D915D916D915E
:103080007C91199746835783608771871A964D9173
:103090005D916D917C911D974287538764877587F9
:1030A0001E964D915D916D917C9151974687578702
:1030B000608B718B52968C915297828B53964D9167
:1030C0005D916D917C915697438B548B658B768B7C
:1030D00057964D915D916D917C915A97478B508F8A
:1030E000618F728F5B968D919C915C97948F838F8B
:1030F00008954F925F926F927F928F929F92AF92BC
:10310000BF92CF92DF92EF92FF920F931F93CF93D4
:10311000DF93CDB7DEB7C754D1090FB6F894DEBF41
:103120000FBECDBF6C015A014901665D7F4F7E0124
:103130008EE1E80EF11CC7010E9428181C821B8238
:1031400081EC94E09A8389831E828501FE01319689
:103150003F0127016FE270E0C8010E9460380097CC
:10316000D9F1F80120812F3219F40F5F1F4FF2CFF0
:10317000801B8D3008F08CE0E82EF12CA701B801FF
:10318000CE01CB960E947238EBE3F0E0EC0FFD1F0E
:10319000EE0DFF1D1082C3010E944B1E21E0AE0107
:1031A000455C5F4FB201C3010E947F1F811109C0BE
:1031B000F6011382128281EC94E091838083158260
:1031C00014C00E0D1F1DC2010E944B1E942D852D93
:1031D0002301692E782EBECF0A191B09F401118331
:1031E0000083B201C6010E942818C601C95BDF4FE7
:1031F0000FB6F894DEBF0FBECDBFDF91CF911F9108
:103200000F91FF90EF90DF90CF90BF90AF909F9085
:103210008F907F906F905F904F900895CF92DF9244
:10322000FF920F931F93CF93DF93CDB7DEB7C955AE
:10323000D1090FB6F894DEBF0FBECDBF6C018A0175
:10324000F22E9E01285A3F4FCE01CB960E9479184C
:103250006A968EAD9FAD6A97080F191FF80180819D
:1032600081110AC0BE01655C7F4FCE0101960E94AC
:1032700028184BEA54E03EC019A218A281EC94E051
:103280009F8F8E8F1BA221968FAD2197811104C035
:10329000C6010E94611A34C082502F2DA8018230CD
:1032A00048F46FEE77E1CE014E960E947F1F8111A8
:1032B0000EC0EECFBE01655C7F4FCE014E960E94E0
:1032C0007F1F882329F3CE01CB960E944B1E9F2D92
:1032D000967041F049A95AA96BA97CA9CE014E96D6
:1032E0000E946E1DBE01625E7F4FCE0101960E945C
:1032F0002818A801BE016F5F7F4FC6010E942C1ADB
:10330000C601C75ADF4F0FB6F894DEBF0FBECDBF60
:10331000DF91CF911F910F91FF90DF90CF90089593
:10332000E5ECF7E1158216821186138682E090E0C3
:10333000A0E0B0E084879587A687B78713A215A67B
:1033400014A681EC94E093A782A717A60895CF93C3
:10335000DF931F92CDB7DEB76983DC01ED91FC915D
:103360000280F381E02D41E050E0BE016F5F7F4FAE
:1033700019950F90DF91CF910895CF93DF93EC01D2
:10338000898D9A8D009739F481E090E09B838A8340
:1033900080E090E00BC0FC01138212820E946D203D
:1033A000E98DFA8D22813381232B71F7DF91CF9143
:1033B0000895FC01818D928D009711F00C94041EEC
:1033C0000895CF93DF931F92CDB7DEB741E050E071
:1033D000BE016F5F7F4F0E94201C019719F4898105
:1033E00090E002C08FEF9FEF0F90DF91CF91089593
:1033F000FC01818D928D009711F00C94E1198FEFF3
:103400009FEF08950F931F93CF93DF93FC01818D5E
:10341000928D0097B9F0EF010E94E1198C010F3FE6
:103420008FEF180791F0898D9A8DFC0142855385A5
:103430006485758541505109610971090E946E1DAD
:10344000C80105C080E090E002C08FEF9FEFDF91E0
:10345000CF911F910F910895EF92FF920F931F93B9
:10346000CF93DF93EC017B018A011B821A8288EEE5
:1034700093E0A0E0B0E08C839D83AE83BF8381EBBB
:1034800094E0998388838DE190E00E9457109A8F91
:10349000898F009779F02DE1F701DC0101900D9201
:1034A0002A95E1F74CE050E0B801CE010C960E945D
:1034B0007238188EDF91CF911F910F91FF90EF908E
:1034C0000895FC011382128288EE93E0A0E0B0E040
:1034D00084839583A683B78381EB94E09183808373
:1034E000128E118E148608950895FC01818D928D9F
:1034F000009711F00C94201C80E090E00895FC01EE
:10350000818D928D009711F00C946E1D80E00895CE
:10351000DC015996ED91FC915A97309729F062851C
:1035200073858485958508956FEF7FEFCB010895AE
:10353000DC015996ED91FC915A97309729F06389F7
:10354000748985899689089560E070E0CB010895BB
:10355000CF92DF92EF92FF92CF93DF93FC01218D08
:10356000328D232BD9F0EC010E94981A6B017C015B
:10357000CE010E94881AA7019601261B370B480B23
:10358000590BDA01C901811530E89307A105B1058E
:1035900038F08FEF9FE7A0E0B0E002C080E090E05D
:1035A000DF91CF91FF90EF90DF90CF900895CF9370
:1035B000DF93EC01898D9A8D009741F00E944B1E9C
:1035C000898D9A8D0E94EC101A8E198EDF91CF9101
:1035D0000895DC015996ED91FC915A97309721F0AE
:1035E00081E09581911101C080E00895CF93DF9330
:1035F000EC019C012A5F3F4F41E050E060E070E049
:103600008B8D9C8D0E943E278823A1F08F89988DF9
:10361000A98DBA8D892B8A2B8B2B59F48E819F8192
:10362000A885B9858F8B988FA98FBA8F8C81806878
:103630008C8381E0DF91CF910895CF92DF92EF925A
:10364000FF921F93CF93DF93EC010E94F61A811132
:1036500002C080E04AC0EB8DFC8DCE80DF80E88424
:10366000F98482E0C81AD108E108F108058404C091
:10367000CC0CDD1CEE1CFF1C0A94D2F786859785C6
:10368000A089B189C80ED91EEA1EFB1E148181E0F3
:10369000C81AD108E108F108112361F0C701B60189
:1036A000610F711D811D911D0E948D25882389F256
:1036B0001150F2CFEB8DFC8D80E092E0A0E0B0E005
:1036C000058404C0880F991FAA1FBB1F0A94D2F754
:1036D0004B895C896D897E89840F951FA61FB71F52
:1036E0008B8B9C8BAD8BBE8B81E0DF91CF911F913B
:1036F000FF90EF90DF90CF900895CF93DF93EC0190
:10370000462F6E857F85888999890E945225882356
:1037100041F08A8920E2829FC0011124895E974E80
:1037200002C080E090E0DF91CF910895FB019B0102
:10373000255F3F4F40E24193E217F307E1F7DC01D9
:1037400090E027E08D91882319F18E3219F0EAE19B
:10375000F3E008C02A3009F198E02AE0F3CF31966F
:103760003817D9F034913111FACF2917B0F03FED65
:10377000380F3E3590F431E0390FFB01E90FF11DB0
:103780009FE9980F9A3108F480528083932FDACF03
:1037900081E0FB019081903209F480E008950F935D
:1037A0001F93CF93DF93FC012581222311F080E04A
:1037B00042C08B01EC01FB0187898031B1F482E0CA
:1037C0008D831F8A188E198E1A8E808D918DA0E0A0
:1037D000B0E025E0880F991FAA1FBB1F2A95D1F7DB
:1037E0008B8B9C8BAD8BBE8B15C0803201F783E039
:1037F0008D83FB01428D538D648D758D4F8B588F5A
:10380000698F7A8F9E012D5E3F4FC8010E94352639
:10381000882369F21C8F0B8F81E08C831E821F82AC
:10382000188619861A861B861C861D861E861F868C
:10383000188A198A1A8ADF91CF911F910F910895E2
:103840002F923F924F925F926F927F928F929F92B0
:10385000AF92BF92CF92DF92EF92FF920F931F939E
:10386000CF93DF93EC015B014A018D81811103C08D
:103870008FEF9FEFD7C08C8180FFFACF4B885C8899
:103880006D887E884A855B856C857D85C401A0E056
:10389000B0E093018201041B150B260B370B0817B0
:1038A00019072A073B0718F44201841A950A2401D4
:1038B0001E0126E0220E311C4114510409F47EC081
:1038C0004A855B856C857D856A0181E0D822ED8122
:1038D0008A019B0189E036952795179507958A956A
:1038E000D1F78B8D9C8DE23061F4FC01828D938D3C
:1038F000A48DB58DBC01CD01600F711F821F931F78
:103900003FC0FC0174807A947022C114D104C9F4C0
:10391000711017C0452B462B472B49F48F89988D82
:10392000A98DBA8D8E839F83A887B9870AC04E81DF
:103930005F816885798591010E94B125882309F40A
:1039400097CFEB8DFC8D8E819F81A885B9850297DD
:10395000A109B109058404C0880F991FAA1FBB1FC4
:103960000A94D2F74685578560897189840F951F1F
:10397000A61FB71FBC01CD01670D711D811D911DD3
:1039800020E032E02C193D0932012415350508F4F8
:1039900039012C8126FD04C06114F2E07F0679F51F
:1039A00000910702109108022091090230910A0249
:1039B000601771078207930719F421C0C40132C050
:1039C000750183019601AB01BC018091151890919E
:1039D00016180E947524882309F44ACFA60CB71C38
:1039E0008A859B85AC85BD85860D971DA11DB11D62
:1039F0008A879B87AC87BD87461857085DCF40E014
:103A00000E945225882309F433CFF601E95EF74E70
:103A1000D501CF01860D971DE817F907F9F221911D
:103A20002D93FACFDF91CF911F910F91FF90EF90DF
:103A3000DF90CF90BF90AF909F908F907F906F90CE
:103A40005F904F903F902F900895FF920F931F9398
:103A5000CF93DF931F92CDB7DEB7FC0125812230D3
:103A600018F480E090E033C08C01FC01428553855E
:103A70006485758585E076956795579547958A9510
:103A8000D1F7F42FFF70FF2E41E050E0BE016F5FD1
:103A90007F4FC8010E94201C019719F4898190E092
:103AA00002C08FEF9FEF0196E1F2F80182859385C6
:103AB000A485B5854F96A11DB11D82879387A487E4
:103AC000B587F0E2FF9EC0011124895E974E0F90EA
:103AD000DF91CF911F910F91FF9008958F929F9248
:103AE000AF92BF92CF92DF92EF92FF920F931F930C
:103AF000CF93DF93EC018D81811102C080E077C00C
:103B00000B891C892D893E8904171507260737075D
:103B1000A8F36A017B01823029F4CA86DB86EC8631
:103B2000FD860DC0C114D104E104F10451F41E82DC
:103B30001F82188619861A861B861C861D8681E0C0
:103B400056C08A849B84AC84BD84EB8DFC8D258516
:103B500030E0275F3F4FB501A40141505109610991
:103B60007109022E04C076956795579547950A947A
:103B7000D2F7D701C6010197A109B10904C0B695D2
:103B8000A795979587952A95D2F784179507A60745
:103B9000B70720F089288A288B2849F44F89588D47
:103BA000698D7A8D4E835F836887798704C0841B13
:103BB000950BA60BB70B4C015D018E010A5F1F4FE1
:103BC00081149104A104B10409F4A7CF4E815F814F
:103BD0006885798598018B8D9C8D0E94B12591E037
:103BE000891A9108A108B1088111EACF87CFDF9126
:103BF000CF911F910F91FF90EF90DF90CF90BF90EA
:103C0000AF909F908F9008950F931F93CF93DF9362
:103C1000EC018D818823C9F18C8187FF30C061E080
:103C2000CE010E947D1B8C01892B79F18D81823020
:103C300048F48B899C89AD89BE89F801848F958F62
:103C4000A68FB78F8F89988DA98DBA8DF801938F24
:103C5000828FB58BA48BE0910E18F0910F183097DE
:103C600059F0B8016A5E7F4FC80148961995F8016E
:103C7000808D918D938B828B8C818F778C83DF915C
:103C8000CF911F910F910C94172580E0DF91CF9178
:103C90001F910F910895CF93DF93EC010E94041EB2
:103CA000882311F01D8281E0DF91CF9108954F921A
:103CB0005F926F927F928F929F92AF92BF92EF929C
:103CC000FF920F931F93CF93DF9300D01F92CDB736
:103CD000DEB7FC0185818130E9F4848181FF1AC05F
:103CE00083899489A589B68984179507A607B7079C
:103CF00088F0892B8A2B8B2B09F479C04A015B0150
:103D00007F014284538464847584CF010E946E1DB8
:103D1000811102C080E06CC0F701838D948D811405
:103D20009104A104B10471F44789508D618D728DA5
:103D30000E945328882371F3F701178A108E118E81
:103D4000128E3AC0F70146815781608571859E01C8
:103D50002F5F3F4F0E94B1258823E1F249815A81AC
:103D60006B817C81F701838D948DFC012789203143
:103D700029F008EF1FEF2FEF3FE004C008EF1FEF1F
:103D800020E030E04017510762077307A8F40E9453
:103D90005328882309F4BECFF701468157816085F7
:103DA00071850FEF1FEF2FEF3FE0838D948D0E9401
:103DB0009E26882309F4AECFF701838A948AA58AC8
:103DC000B68A848180688483C7010E94041E882388
:103DD00009F4A0CFB501A401481459046A047B0476
:103DE00010F4B301A201C7010E946E1D01C081E061
:103DF0000F900F900F900F90DF91CF911F910F9127
:103E0000FF90EF90BF90AF909F908F907F906F90BA
:103E10005F904F9008951F93CF93DF93EC0180E262
:103E2000689FF00111249F01295E374ED9011B962E
:103E30009C91917129F0842F827411F080E05BC015
:103E4000142F6A8B8091070290910802A0910902B9
:103E5000B0910A028E879F87A88BB98BE95EF74ED7
:103E60004489558960E070E0BA01552744274F8B9B
:103E7000588F698F7A8F828D938DA0E0B0E0482BA8
:103E8000592B6A2B7B2B4F8B588F698F7A8FD901D7
:103E90001B968C91887151F4848D958DA68DB78D6C
:103EA0008B8B9C8BAD8BBE8B81E00DC0803131F64E
:103EB0009E012D5E3F4F8B8D9C8D0E943526882361
:103EC00009F4BCCF84E08D83812F8F708C831E8298
:103ED0001F82188619861A861B861C861D8616FF69
:103EE00009C040E050E0BA01CE01DF91CF911F91AF
:103EF0000C94571E81E0DF91CF911F910895CF92CE
:103F0000DF92EF92FF920F931F93CF93DF93CDB782
:103F1000DEB72C970FB6F894DEBF0FBECDBFFC0105
:103F200035813111C2C0D22E8B017C01BE016F5F81
:103F30007F4FCA010E94961B882309F4B6C0F8017E
:103F4000838D948DF701948F838FF80116821782E9
:103F500010861186128613861486158630E0F801C5
:103F600082859385A485B585438954896589768939
:103F700084179507A607B70708F041C025E0B69556
:103F8000A795979587952A95D1F7F82FFF70CF2E93
:103F9000C8013C870E94251D3C85009709F485C017
:103FA000FC012081222309F484C0253E99F04BE0D6
:103FB00050E0BC01CE0101963C870E944A383C8506
:103FC000892B69F68D2D8073803309F46EC04D2DD9
:103FD0006C2D67C031116BC0F701C28A4091070296
:103FE000509108026091090270910A024687578732
:103FF000608B718BFC01808131E08111B0CF8D2D00
:104000008271823109F051C0332341F061E0C70170
:104010000E947D1B8C01892B79F447C0F8018581B2
:10402000823009F442C0C8010E941D1B8823E9F1B7
:10403000F701128A07E118E180E2F80111928A95EE
:10404000E9F78BE0FE013196D80101900D928A9537
:10405000E1F7E0910E18F0910F18309739F0B801A0
:10406000625F7F4FC8014096199509C081E298E2CE
:10407000F801918B808B80E098E097878687F80124
:1040800080899189938B828B918F808F868597858C
:10409000978B868B0E941725882339F04D2DF701C9
:1040A0006289C7010E940B1F09C080E007C031E090
:1040B00056CF332309F490CF31E0A1CF2C960FB621
:1040C000F894DEBF0FBECDBFDF91CF911F910F914E
:1040D000FF90EF90DF90CF9008952F923F924F92F4
:1040E0005F926F927F928F929F92AF92BF92CF9288
:1040F000DF92EF92FF920F931F93CF93DF9300D045
:104100001F92CDB7DEB78C016B013A01DC01159629
:104110008C9115978130C9F414968C9181FF15C04C
:1041200082FF1DC0F801438954896589768982859B
:104130009385A485B58584179507A607B70779F0F9
:10414000C8010E946E1D81110AC081E090E0D80173
:1041500013969C938E93129780E090E048C14301A0
:1041600084C0D8015B968D919C915C97FC01548032
:104170002FEF250D1A012B0139E0569447943794FF
:1041800027943A95D1F7522E52207A01F1E0FF227E
:10419000552009F476C080E092E08E199F09540101
:1041A0008815990508F45C01D8015B962D913C9126
:1041B0005C9716968D919D910D90BC91A02D0297C4
:1041C000A109B109F901058404C0880F991FAA1F2C
:1041D000BB1F0A94D2F74685578560897189840F81
:1041E000951FA61FB71F9C01AD01250D311D411D57
:1041F000511D19012A01A11432E0B30609F088C04B
:104200008091070290910802A0910902B0910A02E0
:1042100082159305A405B50559F48FEF9FEFDC01D6
:104220008093070290930802A0930902B0930A02B8
:104230009601B201A10180911518909116180E9463
:10424000C924882309F481CF9EEFD91A8A189B08C4
:10425000F80182859385A485B5858A0D9B1DA11DD6
:10426000B11D82879387A487B587D8011A964D918F
:104270005D916D917C911D978114910409F071CF2E
:1042800087C0E114F10409F086CF16964D915D9137
:104290006D917C911997411551056105710559F48E
:1042A00057968D919D910D90BC91A02D0097A105E1
:1042B000B10541F521C09E012F5F3F4F0E94B125FE
:1042C000882309F44ACF89819A81AB81BC81F801A6
:1042D000238D348DF9012789203129F048EF5FEFD4
:1042E0006FEF7FE004C048EF5FEF60E070E084179D
:1042F0009507A607B70730F0C8010E94F61A81118A
:104300004ACF23CFF80186839783A087B18743CF15
:10431000E114F10429F5D8011A964D915D916D9142
:104320007C911D9753968D919D910D90BC91A02DE0
:10433000481759076A077B0798F00E9417258823BA
:1043400009F403CF2092070230920802409209023A
:1043500050920A028091141881608093141808C04A
:1043600041E0C201B1010E945225882309F4EDCE3B
:10437000D601F701E95EF74ECF018A0D9B1DE817C4
:10438000F90719F02D912193FACFCA0CDB1C5ECFEF
:104390005396CD90DD90ED90FC90569714968C91AD
:1043A000C416D506E606F70640F4F801438B548B95
:1043B000658B768B806884830DC020910E183091B8
:1043C0000F18232B39F06114710421F08068D80193
:1043D00014968C93F801848183FD02C0C30107C049
:1043E000C8010E94041E882309F4AFCEF7CF0F90B6
:1043F0000F900F900F90DF91CF911F910F91FF9031
:10440000EF90DF90CF90BF90AF909F908F907F9074
:104410006F905F904F903F902F900895CF93DF93D0
:104420001F92CDB7DEB7698341E050E0BE016F5FF8
:104430007F4F0E946D200F90DF91CF9108958EBD28
:104440000DB407FEFDCF08958FEF0E941F228EB599
:10445000089561E0FC0184810C94FE0F60E0FC0192
:1044600084810C94FE0FCF93DF93FC018681882317
:10447000D1F08FEF8EBD4FEF878190859C012F5F2C
:104480003F4F308727838130924028F40DB407FED8
:10449000FDCF4EBDF1CF0DB407FEFDCFEF01CF0133
:1044A0000E9429221E82DF91CF910895673028F063
:1044B00026E1FC01258380E008958DB560FD02C0F2
:1044C000663011F48E7F01C081608DBD8CB58C7F0C
:1044D0008CBD9CB562FD02C080E001C082E06695A3
:1044E0006170692B862B8CBD81E008950F931F931B
:1044F000CF93DF93EB010E94920E8B010E94242246
:104500008F3F49F00E94920E601B710B6C177D0764
:10451000A8F380E001C081E0DF91CF911F910F915E
:104520000895CF92DF92FF920F931F93CF93DF9363
:1045300000D01F92CDB7DEB76C01F62E29833A83E7
:104540004B835C830E943322C6010E942E226CE2C0
:1045500071E0C6010E9476228F2D80640E941F2286
:1045600008E110E05C814B813A812981DA01C901BF
:10457000002E04C0B695A795979587950A94D2F713
:1045800029833A834B835C830E941F2208501109C0
:1045900029813A814B815C81083F8FEF180731F701
:1045A000FF2029F0E8E0FE1204C087E803C085E997
:1045B00001C08FEF0E941F2210E00E942422F6010A
:1045C000828787FF04C01F3F11F01F5FF6CF0F9057
:1045D0000F900F900F90DF91CF911F910F91FF904F
:1045E000DF90CF9008958F929F92AF92BF92EF92FB
:1045F000FF920F931F93CF93DF93EC01E62E1B8660
:1046000019861E821D824C830E94920E8B0161E0EE
:104610008C810E94C20FCE010E94292260E082E3B9
:104620000E94C20F61E083E30E94C20F61E084E355
:104630000E94C20F61E085E30E94C20F61E085E342
:104640000E94FE0F83E58CBD8DB58E7F8DBD2AE067
:10465000F22E8FEF0E941F22FA94F110FACFCE01B2
:104660000E942E2220E030E0A90160E0CE010E94ED
:104670009122F82E8A8781E0F81649F00E94920E66
:10468000601B710B613D774068F381E04CC02AEA02
:1046900031E040E050E068E0CE010E94912282FFCC
:1046A00002C0FB860EC094E0F92E0E9424228A8765
:1046B000FA94F110FACF8A3A11F082E034C082E025
:1046C0008B878B85823021F0812C912C540105C081
:1046D000812C912CA12C80E4B82E20E030E0A9019F
:1046E00067E3CE010E949122A501940169E2CE0107
:1046F0000E9491228A87882349F00E94920E601BB3
:10470000710B613D774048F388E00DC08B858230A6
:1047100039F520E030E0A9016AE3CE010E94912240
:10472000882389F086E08D83CE010E94292280E0D3
:10473000DF91CF911F910F91FF90EF90BF90AF90BD
:104740009F908F9008950E942422807C803C11F4D9
:1047500083E08B870E9424220E9424220E9424222C
:10476000CE010E9429226E2DCE01DF91CF911F91A3
:104770000F91FF90EF90BF90AF909F908F900C940F
:1047800056220F931F93CF93DF93EC010E94920E5A
:104790008B010E9424228A878F3F49F40E94920E47
:1047A000601B710B6D327140A0F38FE003C08E3F30
:1047B00039F08DE08D83CE010E94292280E001C076
:1047C00081E0DF91CF911F910F910895CF92DF92F9
:1047D000EF92FF920F931F93CF93DF93EC01690148
:1047E000C801820F931F8130924008F06FC08E8104
:1047F000882371F088819981AA81BB814817590764
:104800006A077B0729F48F819885C816D90618F5A1
:10481000488359836A837B838B85833039F089E0B1
:10482000440F551F661F771F8A95D1F79A01AB0178
:1048300061E1CE010E949122882319F083E08D83EB
:1048400045C0CE010E94C123882309F43FC01886C9
:104850001F8281E08E838FEF8EBD2FEF8F81988531
:104860008C159D0550F40DB407FEFDCF2EBD8F8134
:104870009885019698878F83F1CFC8010197F7013A
:104880004FEF9F012E193F092817390738F40DB44F
:1048900007FEFDCF2EB521934EBDF3CF0DB407FE1D
:1048A000FDCF2EB5F701E80FF91F20838F81988582
:1048B000080F191F18870F838985882319F00115A0
:1048C000124048F0CE010E94332205C0CE010E9462
:1048D000292280E001C081E0DF91CF911F910F91EB
:1048E000FF90EF90DF90CF900895EF92FF920F939B
:1048F0001F930115110519F00E94E62301C081E004
:104900001F910F91FF90EF900895EF92FF920F93F8
:104910001F93790100E012E020E030E00E94E623DE
:104920001F910F91FF90EF900895CF93DF93EC01CB
:104930006EBD20E030E00DB407FEFDCFFA01E20FBE
:10494000F31F80818EBD0DB407FEFDCF81818EBD2A
:104950002E5F3F4F211582E0380769F70DB407FE3F
:10496000FDCF8FEF0E941F228FEF0E941F220E9417
:1049700024228A87982F9F71953039F081E18D83A9
:10498000CE010E94292280E001C081E0DF91CF9119
:1049900008950F931F93CF93DF93EC018901411585
:1049A00051056105710511F482E132C08B858330B8
:1049B00039F089E0440F551F661F771F8A95D1F79C
:1049C0009A01AB0168E1CE010E949122882311F087
:1049D00084E01EC0A8016EEFCE010E9495248823BA
:1049E000C1F068E572E0CE010E947622811102C01A
:1049F00085E10EC020E030E0A9016DE0CE010E940B
:104A00009122811104C00E942422882339F084E17C
:104A10008D83CE010E94292280E004C0CE010E9435
:104A2000292281E0DF91CF911F910F91089580910C
:104A300014188823A9F1409107025091080260914F
:104A4000090270910A0227E138E1809115189091CE
:104A500016180E94C924811102C080E00895409177
:104A60001018509111186091121870911318411577
:104A700051056105710591F027E138E18091151824
:104A8000909116180E94C924882339F310921018A7
:104A900010921118109212181092131810921418E4
:104AA00081E00895CF92DF92EF92FF92CF936B0156
:104AB0007C01C42F8091070290910802A091090205
:104AC000B0910A028C159D05AE05BF05D1F00E947C
:104AD0001725811102C080E01AC027E138E1B70133
:104AE000A60180911518909116180E94852488239C
:104AF00091F3C0920702D0920802E0920902F0926C
:104B00000A0280911418C82BC093141881E0CF9129
:104B1000FF90EF90DF90CF900895CF92DF92EF92C9
:104B2000FF926B017C010E9417258823A9F0E7E121
:104B3000F8E111928AE1E731F807D9F7C09207024C
:104B4000D0920802E0920902F0920A0280911418B1
:104B500081608093141881E0FF90EF90DF90CF90F8
:104B600008958F929F92AF92BF92CF92DF92EF9271
:104B7000FF920F931F93CF93DF93FC018185928562
:104B8000A385B4850196A11DB11D84179507A607BD
:104B9000B70710F480E05CC083899489A589B68941
:104BA000C789C03129F4852E962EA72EBB2409C0B3
:104BB0004A015B01C7E0B694A79497948794CA957D
:104BC000D1F7E9016A017B018F01BC01CD01680DBC
:104BD000791D8A1D9B1D8090070290900802A0906D
:104BE0000902B0900A02681579058A059B0599F4B7
:104BF000F80187898031A9F4B701A60155276627F6
:104C00007727440F551FFA01E95EF74E80819181A5
:104C1000A0E0B0E018C040E00E9452258111E8CF2A
:104C2000B9CFB701A6014F77552766277727440FDD
:104C3000551F440F551FFA01E95EF74E808191819F
:104C4000A281B381BF7088839983AA83BB8381E0EB
:104C5000DF91CF911F910F91FF90EF90DF90CF9058
:104C6000BF90AF909F908F9008954F925F926F92F8
:104C70007F92AF92BF92CF92DF92EF92FF920F930B
:104C80001F93CF93DF9300D01F92CDB7DEB78C0177
:104C900049835A836B837C835901C12CD12C7601C3
:104CA000412C82E0582E612C712C49815A816B81F4
:104CB0007C819E012F5F3F4FC8010E94B125882350
:104CC00051F1D301C201F801058404C0880F991F76
:104CD000AA1FBB1F0A94D2F7C80ED91EEA1EFB1EDC
:104CE00049815A816B817C818789803129F088EFE5
:104CF0009FEFAFEFBFE004C088EF9FEFA0E0B0E010
:104D0000481759076A077B0780F2F501C082D182F4
:104D1000E282F38281E00F900F900F900F90DF916D
:104D2000CF911F910F91FF90EF90DF90CF90BF90A8
:104D3000AF907F906F905F904F9008954F925F92E9
:104D40006F927F928F929F92AF92BF92CF92DF929B
:104D5000EF92FF920F931F93CF93DF93EC016A01C1
:104D60007B0128013901423051056105710510F4BC
:104D700080E073C089859A85AB85BC850196A11DAD
:104D8000B11D84179507A607B70790F38B889C88F9
:104D9000AD88BE888F89803129F4BB27AF2D9E2D29
:104DA0008D2D09C0DB01CA0147E0B695A7959795FF
:104DB00087954A95D1F7880E991EAA1EBB1E809131
:104DC000070290910802A0910902B0910A02881688
:104DD0009906AA06BB0679F48F898031A1F4DD24F7
:104DE000EE24FF24C601880F991FFC01E95EF74EEF
:104DF0005182408219C040E0C501B4010E94522591
:104E00008111EACFB5CFE894C7F8DD24EE24FF2462
:104E1000C601880F991F880F991FFC01E95EF74EA4
:104E200040825182628273828091141881608093E3
:104E300014188A89823080F08D819E81AF81B88577
:104E4000880E991EAA1EBB1E8092101890921118EF
:104E5000A0921218B092131881E0DF91CF911F91A8
:104E60000F91FF90EF90DF90CF90BF90AF909F9009
:104E70008F907F906F905F904F9008952F923F9208
:104E80004F925F926F927F929F92AF92BF92CF921A
:104E9000DF92EF92FF920F931F93CF93DF93CDB7E3
:104EA000DEB760970FB6F894DEBF0FBECDBF5C01D2
:104EB00049875A876B877C871901D901CD90DD908E
:104EC000ED90FC90C114D104E104F10431F0BFEF86
:104ED000CB1ADB0AEB0AFB0A10C0FC01C080D180B0
:104EE000E280F3809924939409851A852B853C856B
:104EF000013011052105310509F0912CF50181855D
:104F00009285A385B4858C019D010F5F1F4F2F4FA4
:104F10003F4F0D871E872F87388B260137011D8253
:104F20001E821F821886F50181859285A385B4852E
:104F30000D811E812F813885081719072A073B0725
:104F400008F056C02D853E854F85588924153505B6
:104F50004605570550F482E0482E512C612C712CE7
:104F600092E0C92ED12CE12CF12C9E012F5F3F4FF6
:104F7000B301A201C5010E94B1258823C9F149816D
:104F80005A816B817C81D301C2010196A11DB11DA3
:104F9000452B462B472B19F06C017D010FC0AC014E
:104FA000BD014C195D096E097F0909851A852B859C
:104FB0003C85401751076207730779F02D813E81C8
:104FC0004F8158852F5F3F4F4F4F5F4F2D833E835B
:104FD0004F8358872C013D01A6CF0FEF1FEF2FEF16
:104FE0003FE0B301A201C5010E949E26811118C0B5
:104FF00080E041C0D301C2010197A109B1098D83AD
:105000009E83AF83B88793018201AC01BD01C501C6
:105010000E949E26882361F34D805E806F80788495
:10502000C414D504E604F70428F3D1014D915D9131
:105030006D917C91411551056105710599F4F1015E
:10504000C082D182E282F3829920A1F0FFEFCF1AD1
:10505000DF0AEF0AFF0AD501CD92DD92ED92FC92B4
:10506000139708C097018601C5010E949E268111F1
:10507000E6CFBECF81E060960FB6F894DEBF0FBEDC
:10508000CDBFDF91CF911F910F91FF90EF90DF90F7
:10509000CF90BF90AF909F907F906F905F904F9018
:1050A0003F902F900895AF92BF92CF92DF92EF92F0
:1050B000FF920F931F93CF93DF9300D01F92CDB732
:1050C000DEB75C016A017B0182E090E0A0E0B0E025
:1050D000F50180839183A283B3839E012F5F3F4FAD
:1050E000B701A601C5010E94B125882311F100E096
:1050F00010E09801B701A601C5010E949E268823F1
:10510000C1F0C980DA80EB80FC80F50187898031AD
:1051100029F088EF9FEFAFEFBFE004C088EF9FEF6B
:10512000A0E0B0E0C816D906EA06FB06B0F281E0BE
:1051300001C080E00F900F900F900F90DF91CF9102
:105140001F910F91FF90EF90DF90CF90BF90AF90A5
:1051500008958F929F92AF92BF92CF92DF92EF927B
:10516000FF920F931F93CF93DF93EC01142F709353
:10517000161860931518442369F1453010F080E04B
:10518000F2C040E060E070E0CB010E94522588232D
:10519000B1F320E1129FA0011124495F574EFA019B
:1051A000E254FE4F80818F7751F73C968081918148
:1051B000A281B38184369105A105B10500F334972E
:1051C000C080D180E280F380C114D104E104F104F5
:1051D00021F4D5CFC12CD12C760140E0C701B60116
:1051E0000E945225882359F2809122189091231809
:1051F0008115924021F690912718992309F4BFCF89
:105200002091251830912618232B09F4B8CF8091CE
:105210002418882309F4B3CF9A8B8C831D8690E0E1
:1052200061E070E02D85E22FAB01022E02C0440F39
:10523000551F0A94E2F78417950731F031E0320FD9
:105240003D87283078F39BCF20912D1830912E1870
:105250002115310519F040E050E008C020913B18BD
:1052600030913C1840913D1850913E182D833E835B
:105270004F83588780912518909126184601570131
:10528000880E991EA11CB11C8B8A9C8AAD8ABE8A8D
:105290000091281810912918198F088FA0912718AC
:1052A000B0E00E945939860E971EA81EB91E8A8E3C
:1052B0009B8EAC8EBD8E85E0000F111F8A95E1F7A5
:1052C00001501E4F012F11270695800E911EA11C23
:1052D000B11C8E869F86A88AB98A20912A1830919F
:1052E0002B182115310521F0A90160E070E008C0FC
:1052F00040913718509138186091391870913A18C8
:10530000D701C60188199909AA09BB09840F951FFD
:10531000A61FB71F04C0B695A79597958795EA95E0
:10532000D2F789879A87AB87BC87853F2FE09207A2
:10533000A105B10510F48CE014C0853F9F4FA10575
:10534000B10510F480E10DC080914318909144188C
:10535000A0914518B09146188A8F9B8FAC8FBD8F56
:1053600080E28F8B81E0DF91CF911F910F91FF90B1
:10537000EF90DF90CF90BF90AF909F908F90089567
:105380002F923F924F925F926F927F928F929F9255
:10539000AF92BF92CF92DF92EF92FF920F931F9343
:1053A000CF93DF9300D0CDB7DEB74C017B836A8308
:1053B0006A01590117019801241B350B37FF03C0FF
:1053C000319521953109C5014A815B81841B950B7B
:1053D00097FF03C091958195910951E059838217F8
:1053E000930714F019820BC09A2D8B2D5801092FA9
:1053F000182F9A818B81DB82CA82C92ED82E8A818E
:105400009B81A816B9065CF49C2D8D2D6801092F8F
:10541000182F9A818B81BB82AA82A92EB82E2501D2
:10542000AA81BB814A1A5B0A38016C187D0877FE95
:1054300003C0719461947108720157FE03C0BFEFFD
:10544000EB1AFB0AF594E794C016D1061CF00FEF97
:105450001FEF1FC001E010E01CC0D401ED91FC91D2
:10546000B9810084F185E02D9101BB23C1F04A810F
:105470005B81B601C4011995E618F708F7FE04C070
:10548000C00ED11EE40CF51CEA81FB813196FB8332
:10549000EA834A815B81A416B506FCF604C0A60126
:1054A0006A817B81E7CF0F900F900F90DF91CF91B2
:1054B0001F910F91FF90EF90DF90CF90BF90AF9032
:1054C0009F908F907F906F905F904F903F902F9024
:1054D00008950895DC01ED91FC910480F581E02DA3
:1054E00019940F931F93DC01ED91FC91008CF18DC9
:1054F000E02D19951F910F9108950F931F93DC01D3
:10550000ED91FC91028CF38DE02D19951F910F9177
:105510000895EF92FF920F931F93DC01ED91FC91A0
:10552000048CF58DE02D19951F910F91FF90EF9050
:1055300008950895AF92BF92CF92DF92EF92FF92BB
:105540000F931F93CF93DF9300D01F92CDB7DEB799
:105550005C016901DC01ED91FC910680F781E02D91
:105560004B835C8369837A831995D501ED91FC9116
:105570004B815C81C40ED51EB1E0CB1AD1080088E6
:10558000F189E02D7801860169817A819B01C5014D
:105590001995D501ED91FC910288F389E02DC501A3
:1055A0000F900F900F900F90DF91CF911F910F915F
:1055B000FF90EF90DF90CF90BF90AF901994AF9293
:1055C000BF92CF92DF92EF92FF920F931F93CF93F0
:1055D000DF9300D01F92CDB7DEB75C016901DC011B
:1055E000ED91FC910680F781E02D4B835C8369830C
:1055F0007A831995D501ED91FC9169817A819B019E
:105600002C0D3D1D215031090088F189E02D7801D4
:105610004B815C818A01C5011995D501ED91FC9101
:105620000288F389E02DC5010F900F900F900F9025
:10563000DF91CF911F910F91FF90EF90DF90CF906E
:10564000BF90AF9019944F925F926F927F928F921A
:105650009F92AF92BF92CF92DF92EF92FF920F9301
:105660001F93CF93DF931F921F92CDB7DEB76C01CC
:105670005A0139014801DC01ED91FC910680F78166
:10568000E02D69837A8319956981462E7A81572E98
:10569000640C751CD601ED91FC91461457046CF412
:1056A0000484F585E02D87019401A501B201C601AE
:1056B0001995BFEF4B1A5B0AEDCF0288F389E02DF5
:1056C000C6010F900F90DF91CF911F910F91FF9026
:1056D000EF90DF90CF90BF90AF909F908F907F9092
:1056E0006F905F904F901994EF92FF920F931F93DA
:1056F000DC01ED91FC9111971A960D911C911B976D
:1057000018962D913C911997048CF58DE02D7B0115
:1057100040E050E060E070E019951F910F91FF901C
:10572000EF900895CF92DF92EF92FF920F931F9325
:10573000CF93DF9300D000D0CDB7DEB76C01DC0192
:10574000ED91FC916217730789F4041715072CF487
:10575000942F852FA801092F182F041B150B9801D2
:105760002F5F3F4F008CF18DE02D12C04017510785
:1057700009F5261737072CF4962F872FB901292F03
:10578000382F261B370B2F5F3F4F028CF38DE02DF8
:105790008701C601199526960FB6F894DEBF0FBE95
:1057A000CDBFDF91CF911F910F91FF90EF90DF90D0
:1057B000CF9008950680F781E02D2D833E834B83A3
:1057C0005C8369837A831995D601ED91FC910088F9
:1057D000F189E02D2D813E814B815C8169817A8147
:1057E000C6011995D601ED91FC910288F389E02D4F
:1057F000C60126960FB6F894DEBF0FBECDBFDF916F
:10580000CF911F910F91FF90EF90DF90CF9019945F
:105810006F927F928F929F92AF92BF92CF92DF92C0
:10582000EF92FF920F931F93CF93DF93EC014B0105
:105830005A0169013801E881F9810680F781E02D7C
:105840001995E881F9810684F785E02D8701960195
:10585000A501B401CE011995E881F981A501460D94
:10586000571D415051090684F785E02D9601B4017A
:10587000CE011995E881F9810484F585E02D930125
:10588000A501B401CE011995E881F981C80CD91C94
:10589000B601615071090484F585E02D9301A501DD
:1058A000CE011995E881F9810288F389E02DCE01B6
:1058B000DF91CF911F910F91FF90EF90DF90CF90EC
:1058C000BF90AF909F908F907F906F9019940895A4
:1058D000FC016370658B84819581268137816130FD
:1058E00039F0633029F091878087338722870895C4
:1058F00031872087938782870895FC011382128263
:1059000089EC94E091838083758364835783468315
:105910007187608753874287158A15861486178694
:10592000168681E0848B2FEF3FEF338B228B318BF8
:10593000208B868B178A118E108E08952F923F929E
:105940004F925F926F927F928F929F92AF92BF928F
:10595000CF92DF92EF92FF920F931F93CF93DF933B
:10596000CDB7DEB728970FB6F894DEBF0FBECDBF18
:105970005C013B014A0138872F83FC82EB8281E086
:1059800090E02C01421A530AC90191958195910921
:105990009C01220F331F3A832983170133E0230E22
:1059A000311CEE24E394F12C802F81708D830270E2
:1059B0000E83C7010197EF81F8858E179F070CF0C2
:1059C00078C057FC0CC0AF81B8851197B887AF83FA
:1059D000E981FA813296FA83E9834E0E5F1EC70190
:1059E000880F991F0196480E591EFD81FF2359F11A
:1059F000D501ED91FC912F813885220F331F2F5F48
:105A00003F4F8B819C81280F391F0484F585E02D41
:105A10008601A401AF81B8854A1B5B0BB701660DF7
:105A2000771DC5011995D501ED91FC910484F5858B
:105A3000E02D9101A4014E195F096F817885660DF3
:105A4000771DC5011995BE81BB2361F1D501ED918B
:105A5000FC912F813885220F331F2F5F3F4F8B81A1
:105A60009C81280F391F0484F585E02D8601A4014F
:105A7000AF81B8854A1B5B0BB3016E197F09C50165
:105A80001995D501ED91FC910484F585E02D9101E6
:105A9000A4014E195F09B3018F819885681B790BAA
:105AA000C50119959FEFE91AF90AA2E02A0E311CE7
:105AB00080CF28960FB6F894DEBF0FBECDBFDF9122
:105AC000CF911F910F91FF90EF90DF90CF90BF90FB
:105AD000AF909F908F907F906F905F904F903F908E
